:10000000B8210020F5140000F1140000F1140000E4
:1000100000000000000000000000000000000000E0
:10002000000000000000000000000000F1140000CB
:100030000000000000000000F1140000F1140000B6
:10004000F1140000F1140000F1140000F11400009C
:10005000F1140000F1140000F1140000F11400008C
:100060008D0E00009D0E0000AD0E0000BD0E0000C4
:10007000CD0E0000DD0E0000F1140000F1140000B0
:10008000F1140000F1140000F1140000F11400005C
:10009000F1140000F1140000F1140000F11400004C
:1000A000F1140000F1140000F1140000F11400003C
:1000B0000000000010B5064C2378002B07D1054B3B
:1000C000002B02D0044800E000BF0123237010BDC4
:1000D0000C0000200000000080180000084B10B544
:1000E000002B03D00749084800E000BF0748036819
:1000F000002B00D110BD064B002BFBD09847F9E731
:10010000000000001000002080180000801800008F
:1001100000000000F0B5DE4657464E464546E0B5C5
:1001200087B08046049116001F00002200230021A2
:100130008B463F2401202100009601975C460394E2
:100140004446059413E02024641A0500E540A846BF
:1001500014E0009C019D121BAB415C464D462C43B4
:10016000A346039C45462C430394013925D3202400
:1001700064420C19E7D40500A540A84604008C4051
:10018000A14692185B4114001D00059E4F463E405B
:10019000B446049E47463E40B246664657463E43F6
:1001A00003D00600264332002B00009C019D9D4297
:1001B000DBD8CED19442D8D8CBE7039B5846190060
:1001C00007B03CBC90469946A246AB46F0BD10B580
:1001D000490840230024814202D2180010BD1C00AF
:1001E000091A631C9BB28842F9D94023FF2CF4D82A
:1001F00014800023F1E70000F0B583B00F00160073
:1002000008AA117804004C434022BC4202D91000D5
:1002100003B0F0BD002B14D1020008000021194CDE
:10022000A04701003A0000230020174CA0470022FD
:100230000123121A8B41120C1B041A433280002234
:10024000E5E70022012BF9D10A00002300210D4C23
:10025000A04702000B0000920193380000210A4CD5
:10026000A047050080239B0140229842CFD8790FF8
:10027000F800009A019BA047EA00821AD2B252030A
:100280002A43DBE7F51600001501000010B582B027
:1002900004000E4B1B78002B07D0002905D10B4B17
:1002A0005B78834210D01D200CE001A90C70112056
:1002B000074B98471120074B9847044B5C7001226D
:1002C0001A70002002B010BD0020FBE728000020BB
:1002D0009513000025130000404B984232D00AD9F4
:1002E0003F4B98424ED03F4B98425BD03E4B98429A
:1002F00038D0002070478423DB0598420CD03B4B5C
:100300009842F6D1012917D000295DD0022915D0D5
:10031000032915D00020EDE7012907D0002951D08D
:10032000022905D0032905D00020E3E73048E1E7A2
:100330003048DFE73048DDE73048DBE73048D9E7D1
:100340003048D7E7012907D000293FD0022905D03E
:10035000032905D00020CDE72B48CBE72B48C9E780
:100360002B48C7E7012907D0002931D0022905D041
:10037000032905D00020BDE72648BBE72648B9E79A
:100380002648B7E7012907D0002923D0022905D044
:10039000032905D00020ADE72148ABE72148A9E7B4
:1003A0002148A7E7012907D0002915D0022905D047
:1003B000032905D000209DE71C489BE71C4899E7CE
:1003C0001C4897E71C4895E7032093E71B4891E7F3
:1003D0001B488FE71B488DE71B488BE7000800424E
:1003E0000010004200040043000C004200040042E0
:1003F00003000500030006000300070003000100DE
:1004000003001E0003001F000300090003000A0090
:1004100003000B000300110003001200030013008F
:1004200003000D0003000E0003000F00030017007F
:100430000300180003001900030004000300080073
:100440000300100003000C000300160030B587B055
:100450000B4B6A4632CB32C232CB32C2009B834254
:100460000BD001239A0069465258824206D00133CC
:10047000062BF7D1002007B030BD0023D8B2FAE731
:100480009017000070B584B068460B4B6A4632CBBB
:1004900032C21B6813600F21084B9847084EB047C3
:1004A000084D2800084CA047B0472800A047B04797
:1004B0002800A04704B070BDA81700004D07000039
:1004C00065060000881300002D0F0000F0B5DE4621
:1004D00057464E464546E0B5A7B016AB8022D2053A
:1004E0009246169200225A60FF2189461981002106
:1004F0009A72DA72962080011862242080460125C3
:100500001D54013084461D542627DA5502301A54F2
:100510009A62053083461A5401301A545A610020F9
:100520001A82D87619761977597613249C765977DA
:1005300080246403DC603E4C1C633E4C5C630124FD
:1005400064429C63DC6306AB564606965A604E4690
:100550001E819972D97246469D5566469D55D9555C
:10056000263559559A625D465955013559555A6196
:100570001A82D87618761877587613329A76587782
:10058000E12212021A62C4229203DA601C635C63E5
:10059000294A9A63294ADA63294D2A4C16AA2A491C
:1005A0002800A0470028F9D1284D264C06AA284942
:1005B0002800A0470028F9D1214D2C682000254BA8
:1005C00098471F2318401E3B8340234A13602A6824
:1005D000D369002BFCD123680222134323601B4DF7
:1005E0002C6820001B4B98471F2318401E3B83405C
:1005F000194A13602A68D369002BFCD123680222B0
:100600001343236001A9154B0A0031CB31C218688E
:100610001060988890809B79937112220848104B43
:10062000984727B03CBC90469946A246AB46F0BDE1
:100630000200160002001700020012000200130060
:10064000A0000020C9070000000C00426C00002040
:10065000000400425D0E000000E100E0B817000059
:10066000C90B0000F0B595B00AA92F4B0A0013CBB7
:1006700013C213CB13C213CB13C206AA2B4B13CB3B
:1006800013C21B8813802A4B6A4613CB13C203CBB9
:1006900003C2198811809B7893704E2169442548C4
:1006A000254B9847002839D1244A1368591C1160FA
:1006B0004E226A441188224AD1541F4E1D4D4E24A9
:1006C0006C4423780A2B18D021002800B04700285A
:1006D000F7D11A4B1B68C82B09D0184A1368591C4C
:1006E00011604E226A441188154AD154E7E723224B
:1006F0000AA91448144B9847EFE7114F0F4C0025F7
:100700002368FD54162269460E480F4EB0472288D2
:1007100039000C48B047256015B0F0BD0D2206A980
:100720000848094B9847F7E7CC170000F01700007E
:10073000001800006C000020590B00002C00002065
:10074000D8000020A0000020C90B0000F0B589B03F
:100750000D000A00019001001348144CA04704A9A1
:10076000134B0A00C1CBC1C2188810809B789370CC
:1007700003AF104B1A883A809B78BB700E4E0E2246
:100780003000A0472A0001993000A047022239001A
:100790003000A047FA208000084CA047084B98473B
:1007A0000848A04709B0F0BD6C000020C90B00004C
:1007B000181800005C180000A00000202D0F000099
:1007C00065060000C4090000F0B5DE4657464E46F7
:1007D0004546E0B591B005000C0016002960080000
:1007E000C44B9847020005280DD0070012370300BC
:1007F00021680520C90709D511B03CBC904699462F
:10080000A246AB46F0BD18270123F1E72168173057
:100810008907F1D4052A47D0B749C86901229A400F
:1008200013000343CB610FA92D239846F35C0B7093
:10083000FFB23800B14B98473800B14B9847434658
:10084000F05C0021AF4B9847F37A6B712423F35C83
:10085000AB712523F35CEB71F37E2B72337F6B72EC
:100860002B6898461800A34B9847123000220E239D
:1008700006A98C4663441A80328A02928023DB01E7
:100880009A4200D1A9E017D9C023DB01029A9A420B
:1008900000D19DE080231B029A4200D025E1032372
:1008A00006930023079310E09349086A043A9A409C
:1008B000130003430B62B6E780239B019A4200D0EA
:1008C00013E1102306930F3B079333680593F368F6
:1008D000039373690493337E9B462623F35C9A4605
:1008E00073689946002B00D19FE080235B059945F2
:1008F00004D12723F35C002B00D184E0737E002B0E
:1009000002D0B37E424693732A68029FD369002BBC
:10091000FCD10E3306AA944663441B884246938159
:10092000059B039A1343049A13434A4613431F43F8
:100930005B461B021F4353465B071F432723F35CA1
:10094000002B01D104331F43737E9B02327F52027E
:100950001343727F120213432422B25C52041343E6
:100960002522B25C12041343B17AF27A114319437F
:100970003389FF2B7DD080225204174319432C2347
:10098000F35C002B03D1604B9B789B0701D5802340
:100990001F432A68D369002BFCD1434659602A685B
:1009A000D369002BFCD143461F600EAB80221A7026
:1009B00000225A70DA709A70336B0A93736B0B9340
:1009C000B36B0C93F36B02930D9300270AAE5EE0BA
:1009D00008230693073B079377E733680593F3688B
:1009E000039373690493337E9B462623F35C9A46F4
:1009F00073689946002B14D080235B05994500D17C
:100A000077E7002020E0336A1F00C0B23F4B9847D1
:100A100001000E2206AB9C46624438003C4B9847CE
:100A200012E008230693002307932723F35C002B8F
:100A30000ED0069B0093079B0E2206A98C466244AB
:100A4000B16A306A334FB847002800D0D4E655E782
:100A5000336A1F00C0B22D4B98470100069B0093DC
:100A6000079B0E2206A8844662443800294FB847E7
:100A7000EAE7F37E002B82D08023DB041F437EE76E
:100A80002000254B984707E00137042F0DD0F9B21D
:100A9000BB0098590028F3D0431CF5D00EA908706C
:100AA000000CC0B21D4B9847EEE70023EB602B61B2
:100AB0006B61AB61EB612B62AB626B620022EB8519
:100AC000AB853033EA540133EA540133EA5401333D
:100AD000EA542868074B984704001149114B98477E
:100AE000A400114BE550002086E610230693002356
:100AF0000793EAE64D04000000040040951300004F
:100B0000251300008D02000000200041B9130000F1
:100B1000CF010000F9010000D9020000911400008B
:100B2000890C0000210E0000A0010020C2791C23C6
:100B3000002A01D118007047C28D92B2173B002ADB
:100B4000F8D10368DA69002AFCD1198502211A7EDE
:100B50000A42FCD00023EDE782791C23002A01D150
:100B600018007047828D92B2173B002AF8D10268B4
:100B7000107E4007F4D5D369002BFCD1538BDBB238
:100B800098061DD0980703D5022353831833E7E74F
:100B9000580703D5042353831A33E1E7D80703D555
:100BA000012353831233DBE7D80603D51023538385
:100BB0003233D5E79B0603D5202353832133CFE778
:100BC000138D0B800023CBE7F0B5CE46474680B5AA
:100BD00083B0050001911720002A04D103B00CBC9A
:100BE00090469946F0BDEB790530002BF6D02C6885
:100BF000E369002BFCD1013A93B299460026012704
:100C00001F4B984611E0731C9BB2019A915D6A7963
:100C1000012A17D089B21E0028001A4B98474B466C
:100C2000013B9BB29946434513D0237E3B42EAD118
:100C3000134B227E3A42E6D1012B19D0013B002B07
:100C4000F7D1E0E70236B6B2019AD35C1B02194332
:100C5000E2E7237E9B070DD4094B0221227E0A4244
:100C60000AD1012B0AD0013B002BF7D10020B5E7B8
:100C70001220B3E70020B1E70020AFE71220ADE774
:100C8000FFFF00002D0B0000F8B58000624BC55837
:100C90002C68E369002BFCD1237EA67D1E40302307
:100CA000EB5C3122AF5C1F40F30722D5EB8D9BB28A
:100CB000002B1CD0AA6A1378DBB2511CA962697997
:100CC00001290ED09BB2DB05DB0D2385EB8D013BAB
:100CD0009BB2EB85002B0CD1013323750133A37537
:100CE00007E0517809020B430232AA62EBE70123C5
:100CF0002375B30706D50223237500223133EA5446
:100D0000FB071AD4730765D5AB8D9BB2002B5FD060
:100D1000638BDBB21A0714D43F221340002B34D06C
:100D20009A0711D51A223223EA54303B63837B079A
:100D300050D528006B6998474CE02800EB6898472D
:100D4000E0E737221340E9E75A0705D51E22322390
:100D5000EA542E3B6383EAE7DA0705D513223223F0
:100D6000EA54313B6383E2E7DA0605D542223223B7
:100D7000EA54223B6383DAE720221A42D7D0213299
:100D80003223EA54123B6383D1E7238DDB05DB0D6D
:100D9000DAB2696A0A706A6A511C69626979012962
:100DA00010D0AB8D013B9BB2AB85002B12D104332D
:100DB000237500222E33EA54BB070BD528002B697C
:100DC000984707E01B0A53706B6A01336B62E8E7D0
:100DD00004232375F30604D5102323752376FB061D
:100DE0000ED4B30604D52023237523763B070BD4FA
:100DF000330704D5082323752376BB0608D4F8BD32
:100E00002800EB699847ECE72800AB699847EFE7C3
:100E10002B6A28009847F2E7A001002070470000E5
:100E2000F0B50A4B1B78002B0CD1094F094E0A4D27
:100E30000024DE515A1914600433182BF9D1012211
:100E4000024B1A708000024BC150F0BD30000020F0
:100E5000340000201D0E0000A001002000B583B06A
:100E600008236A46137001335370013393700133C2
:100E7000D3700133137101335371034B98476B46A1
:100E8000185603B000BDC0464D04000010B5024B1B
:100E90001B680020984710BD3400002010B5024B9D
:100EA0005B680120984710BD3400002010B5024B4C
:100EB0009B680220984710BD3400002010B5024BFB
:100EC000DB680320984710BD3400002010B5024BAA
:100ED0001B690420984710BD3400002010B5024B58
:100EE0005B690520984710BD3400002070B50020D4
:100EF000084B98470500084CFA218900A047074B8A
:100F0000186007492800A047064B18600522064BC9
:100F10001A6070BDB9120000DD150000000000204D
:100F200040420F000400002010E000E030B5084B04
:100F30001C68084A002580214902013807D3002C8B
:100F4000FBD05460956013680B42FCD0F5E730BDD0
:100F50000000002010E000E00C4B1B68002B06D1C5
:100F6000EFF31083002B07D00022094B1A70074AB9
:100F7000136801331360704772B6BFF35F8F0022AE
:100F8000044B1A700132024B1A70F0E74C0000203B
:100F90005000002008000020084B1A68013A1A602F
:100FA0001B68002B09D1064B1B78002B05D00122B2
:100FB000044B1A70BFF35F8F62B670474C0000207D
:100FC0005000002008000020F0B583B001AC0125DE
:100FD00065700027A770257021002A20064EB047B3
:100FE0008022D200054B9A61277065702100022093
:100FF000B04703B0F0BDC04601100000802800409B
:1010000000B583B001AB80221A700A785A704A7812
:101010009A708A78DA701900014B984703B000BDC6
:101020009114000010B5082803D880001C4B1B58F1
:101030009F46002032E01B4B18692FE01A4B187DA9
:101040000007800F431C1948584327E0154B586987
:1010500024E0144B1B6800209B071FD512498022F7
:101060005200CB681342FCD00E4B1B685B0701D4C7
:101070000F4813E000200F4B98470A4B9B681B0456
:101080001B0C58430AE02823074AD35C00209B0727
:1010900004D5044BD86801E08020000210BDC04692
:1010A0002818000054000020000C004000093D00FA
:1010B000006CDC02B913000010B584B0802252002D
:1010C0002F4B9A60FD3A2F4B9A602F4A53681E218E
:1010D0008B4353608023DB059B78022B0FD080234A
:1010E000DB059B785BB2002B09DB8023DB0501224B
:1010F0009A7101329A701A009379002BFCD0204B20
:10110000197D802252420A431A751A7D40218A4372
:101110001A751E4B98471E4C0123A37163712371EE
:1011200001A94B6000234B7006220A700B724B72B0
:101130000020184B98470020174B98470020174B6A
:1011400098472179C9B2164B9847164B984214D844
:101150008023DB059B78002B0FD08023DB059B7859
:101160005BB2002B09DB8023DB0501229A71002290
:101170009A701A009379002BFCD004B010BDC046C1
:10118000000C00400014004000400041A911000084
:1011900000040040CD11000079120000B9120000D7
:1011A000DD150000001BB700064A536940210B43C0
:1011B00053610122044B1A7019000B781342FCD1C1
:1011C0007047C046000400400018004070B504009D
:1011D0000D784B78002B02D08023DB001D434B7A27
:1011E000002B02D080231B011D43486801280FD922
:1011F000431E184231D102282DD902230022013288
:101200005B009842FBD880235B011D431204154309
:101210000B7A002B02D080239B011D430426A6409D
:101220001149124A4B6813401E42FBD1104B98479C
:10123000A4000D4B9C466444226A80235B001A4044
:101240002A4322626146094A4B6813401E42FBD181
:10125000084B984770BD0022D5E7000480239B000F
:1012600018430543D4E7C04600180040FC070000BF
:10127000590F0000990F000010B5040004228240AD
:1012800009480A4943680B401A42FBD1084B98476A
:10129000A400054B9C466444226A80235B001343F0
:1012A0002362044B984710BD00180040FC07000063
:1012B000590F0000990F0000F8B504000422824085
:1012C0001248134943680B401A42FBD1114B98470F
:1012D0000E4F0834A400E0590007000F0E4B98474A
:1012E0000600E559ED04ED0FE459240C0B4B98472B
:1012F000002D07D1012C07D921003000084B984759
:10130000060001E00134E6403000F8BD001800405E
:10131000FC070000590F000025100000990F000085
:10132000DD15000010B50400094B9847A000094BDB
:101330009C4660448022835840210B4383504031B7
:10134000403A43581A42FCD0034B984710BDC04660
:10135000590F000000180040990F000010B504005C
:10136000094B9847A000094B9C4660448022835853
:1013700040218B4383504031403A43581A42FCD1BC
:10138000034B984710BDC046590F0000001800409D
:10139000990F000070B504000D00054B98472A789E
:1013A0000F2313402034A400024AA35070BDC0464E
:1013B0005D1300000018004010B50400064B98476C
:1013C0002034A400054BE4582407240F044B98470D
:1013D0002000044B984710BD590F00000018004032
:1013E000990F0000B912000030B5D378002B35D129
:1013F0001378802B29D01B06802464022343547861
:101400000225AC4306D19478002C20D18024A4027C
:10141000234341605478013C012C1CD90D042D0C50
:10142000A024E4052C431C4384620D0CD024240624
:101430002C431C438462D478002C22D15B031CD53E
:101440009378012B1ED0416117E00023D7E7C02419
:10145000E4022343DDE70D4C2340DFE741600C0449
:10146000240CA023DB05234383620C0CD0231B0632
:1014700023438362D378002B03D15378013B012BA4
:1014800002D930BD8161F8E78160FAE7FFFFFBFF19
:1014900010B50A00C1090023002904D14309DB016A
:1014A00005498C4663441F242040012181401800D7
:1014B000024B984710BDC04600280040E9130000C9
:1014C0007047000010B5054B9847054B9847054BF2
:1014D0009847054B9847054B984710BDB910000039
:1014E000C90F0000C1140000C1140000C1140000A5
:1014F000FEE7000010B51A4A1A4B9A4211D01A00A2
:10150000194B9A420DD2194A03339B1A9B08013397
:101510009B000022134812498C58845004329A428E
:10152000FAD1134A134B9A420AD2D34311495B189A
:1015300003218B4304339B18002102C29342FCD148
:101540000D4AFF210D4B8B4393600D4A53687F3941
:101550000B4353600B4B98470B4B9847FEE7C04635
:1015600080180000000000200C0000200400002073
:101570000C000020B801002000ED00E00000000099
:1015800000400041491700008D15000030B587B0BC
:101590000C4B98470C4B98470C4B98470C4B984773
:1015A00001A80C4B020032CB32C219681160998835
:1015B00091809B7993711221074B9847002007B0C7
:1015C00030BDC046C5140000CD040000ED0E000083
:1015D000850400004C1800004D070000002243085D
:1015E0008B4274D303098B425FD3030A8B4244D3EB
:1015F000030B8B4228D3030C8B420DD3FF2209022D
:1016000012BA030C8B4202D31212090265D0030BEB
:101610008B4219D300E0090AC30B8B4201D3CB03E1
:10162000C01A5241830B8B4201D38B03C01A524123
:10163000430B8B4201D34B03C01A5241030B8B4225
:1016400001D30B03C01A5241C30A8B4201D3CB0210
:10165000C01A5241830A8B4201D38B02C01A5241F5
:10166000430A8B4201D34B02C01A5241030A8B42F8
:1016700001D30B02C01A5241CDD2C3098B4201D310
:10168000CB01C01A524183098B4201D38B01C01A8E
:10169000524143098B4201D34B01C01A5241030905
:1016A0008B4201D30B01C01A5241C3088B4201D3B4
:1016B000CB00C01A524183088B4201D38B00C01A61
:1016C000524143088B4201D34B00C01A5241411A88
:1016D00000D20146524110467047FFE701B5002095
:1016E00000F006F802BDC0460029F7D076E7704743
:1016F0007047C046F0B5CE46474615042D0C2E0067
:1017000080B50704140C3F0C9946030C7E435D43DF
:10171000674363437F19340CE4199C46A54203D9FF
:1017200080235B029846C4444B46514343433604EE
:10173000360C250C24046544A419591849192000B5
:101740000CBC90469946F0BD70B500260C4D0D4C72
:10175000641BA410A64209D1002600F081F80A4DAE
:101760000A4C641BA410A64205D170BDB300EB580F
:1017700098470136EEE7B300EB5898470136F2E799
:101780006C1800006C1800006C1800007018000045
:10179000000000420004004200080042000C004229
:1017A00000100042000400436D6163206A6F696E9F
:1017B000206F7461610D0A005541525420496E69D1
:1017C0007469616C697A65640D0A00005265616430
:1017D000427566206F766572666C6F772C20656D3A
:1017E000707479696E67206275666665720D0A00AD
:1017F0004E6F20726573706F6E73650D0A00000086
:1018000052656365697665642066726F6D20524E1D
:10181000323930333A20000053656E7420636F6DA7
:101820006D616E643A200000361000003210000036
:101830003210000098100000981000004C100000BA
:101840003C10000052100000861000006D61632003
:10185000747820756E636E66203120640D0A000076
:10186000F8B5C046F8BC08BC9E467047DD000000D5
:10187000F8B5C046F8BC08BC9E467047B5000000ED
:0C188000401F00000800000001000000F4
:04000003000014F5F0
:00000001FF
